:100000000C945E000C9486000C9486000C94860080
:100010000C9486000C9486000C9486000C94860048
:100020000C9486000C9486000C9486000C94EC02D0
:100030000C9486000C9486000C9486000C94860028
:100040000C944A020C9486000C94BA020C9494020C
:100050000C9486000C9486000C9486000C94860008
:100060000C9486000C948600000000080002010039
:100070000003040700000000000000000000000072
:10008000250028002B0000000000240027002A0083
:10009000040404040404040402020202020203032E
:1000A0000303030301020408102040800102040836
:1000B0001020010204081020A803450611241FBEC9
:1000C000CFEFD8E0DEBFCDBF11E0A0E0B1E0E4E6C5
:1000D000F2E102C005900D92AA31B107D9F721E0F3
:1000E000AAE1B1E001C01D92A33FB207E1F710E021
:1000F000CDE5D0E004C02197FE010E942D07CC354C
:10010000D107C9F70E9438040C9425090C9400000B
:100110000895AF92BF92CF92DF92EF92FF920F932A
:100120001F93CF93DF936C017B018B01040F151F8D
:10013000EB015E01AE18BF08C017D10759F06991F5
:10014000D601ED91FC910190F081E02DC601099559
:10015000892B79F7C501DF91CF911F910F91FF9006
:10016000EF90DF90CF90BF90AF900895FC01538D3A
:10017000448D252F30E0842F90E0821B930B541781
:1001800010F0CF96089501970895FC01918D828D0E
:10019000981761F0A28DAE0FBF2FB11D5D968C91A7
:1001A000928D9F5F9F73928F90E008958FEF9FEFE6
:1001B00008952FB7F8948091200190912101A0918A
:1001C0002201B09123012FBF80932C0190932D0128
:1001D000A0932E01B0932F0184E291E00E94C5000C
:1001E00097FF26C02FB7F8948091200190912101AC
:1001F000A0912201B09123012FBF40912C01509179
:100200002D0160912E0170912F01841B950BA60B7F
:10021000B70B409128015091290160912A017091FA
:100220002B0184179507A607B707B0F28FEF9FEF52
:100230000895FC01918D828D981731F0828DE80F21
:10024000F11D858D90E008958FEF9FEF0895FC01DB
:10025000918D228D892F90E0805C9F4F821B9109A8
:100260008F739927089584E291E00E94270121E08D
:10027000892B09F420E0822F089580E090E0892BFB
:1002800029F00E94330181110C9400000895FC01B3
:10029000A48DA80FB92FB11DA35ABF4F2C91848DE7
:1002A00090E001968F739927848FA689B7892C9344
:1002B000A089B1898C91837080648C93938D848D97
:1002C000981306C00288F389E02D80818F7D80839A
:1002D0000895EF92FF920F931F93CF93DF93EC015A
:1002E00081E0888F9B8D8C8D98131AC0E889F989DD
:1002F000808185FF15C09FB7F894EE89FF896083E0
:10030000E889F98980818370806480839FBF81E060
:1003100090E0DF91CF911F910F91FF90EF900895A2
:10032000F62E0B8D10E00F5F1F4F0F731127E02E7D
:100330008C8D8E110CC00FB607FCFACFE889F989B5
:10034000808185FFF5CFCE010E944701F1CFEB8D73
:10035000EC0FFD2FF11DE35AFF4FF0829FB7F89489
:100360000B8FEA89FB8980818062CFCFCF93DF93A7
:10037000EC01888D8823B9F0AA89BB89E889F989BD
:100380008C9185FD03C0808186FD0DC00FB607FCF2
:10039000F7CF8C9185FFF2CF808185FFEDCFCE0125
:1003A0000E944701E9CFDF91CF91089590E0FC01D1
:1003B000E859FF4F2491FC01EC55FF4F3491FC01AB
:1003C000E057FF4FE491EE23C9F0222339F02330A8
:1003D00001F1A8F4213019F1223029F1F0E0EE0FFB
:1003E000FF1FE458FF4FA591B4918FB7F894EC919B
:1003F000611126C030953E233C938FBF089527306E
:10040000A9F02830C9F0243049F7809180008F7D11
:1004100003C0809180008F7780938000DFCF84B508
:100420008F7784BDDBCF84B58F7DFBCF8091B0000B
:100430008F778093B000D2CF8091B0008F7DF9CFBD
:100440003E2BDACF0F931F93CF93DF93EC0188817C
:100450009981009759F02A813B812617370730F0A0
:1004600081E0DF91CF911F910F9108958B016F5F14
:100470007F4F0E945808009759F0998388831B8307
:100480000A832C813D81232B59F7FC011082E8CF90
:1004900080E0E7CF1F920F920FB60F9211242F9397
:1004A0003F938F939F93AF93BF938091200190913F
:1004B0002101A0912201B091230130911F0123E07D
:1004C000230F2D3758F50196A11DB11D20931F0153
:1004D0008093200190932101A0932201B0932301E6
:1004E00080911B0190911C01A0911D01B0911E01F2
:1004F0000196A11DB11D80931B0190931C01A09337
:100500001D01B0931E01BF91AF919F918F913F91BB
:100510002F910F900FBE0F901F90189526E8230F74
:100520000296A11DB11DD2CF1F920F920FB60F924E
:1005300011242F933F934F935F936F937F938F93E8
:100540009F93AF93BF93EF93FF9384E291E00E9458
:100550004701FF91EF91BF91AF919F918F917F9153
:100560006F915F914F913F912F910F900FBE0F9020
:100570001F9018951F920F920FB60F9211242F9370
:100580008F939F93EF93FF93E0913401F0913501A6
:100590008081E0913A01F0913B0182FD1BC0908186
:1005A00080913D018F5F8F7320913E01821741F052
:1005B000E0913D01F0E0EC5DFE4F958F80933D01B1
:1005C000FF91EF919F918F912F910F900FBE0F9000
:1005D0001F9018958081F4CF1F920F920FB60F9243
:1005E00011242F933F934F935F936F937F938F9338
:1005F0009F93AF93BF93CF93DF93EF93FF9380913C
:100600001A01C091E501D0E087FF24C01092850057
:100610001092840080911A018F5F80931A0180915B
:100620001A01082E000C990B8C179D0724F4809159
:100630001A018C30C4F18091840090918500049659
:1006400080349C4908F47AC08091840090918500A0
:10065000049676C080911A01082E000C990B8C1715
:100660009D07C4F6E0911A018E2FEE0F990BFC0145
:10067000EE0FFF1FE80FF91FEF53FE4F808186FF3B
:10068000C9CFE0911A018E2FEE0F990BFC01EE0FEE
:10069000FF1FE80FF91FEF53FE4F808160E08F735B
:1006A0000E94D601B7CF2091840030918500E0915F
:1006B0001A018E2FEE0F990BFC01EE0FFF1FE80FB2
:1006C000F91FEF53FE4F81819281820F931F909308
:1006D000890080938800E0911A018E2FEE0F990B0C
:1006E000FC01EE0FFF1FE80FF91FEF53FE4F808153
:1006F00086FF11C0E0911A018E2FEE0F990BFC01BD
:10070000EE0FFF1FE80FF91FEF53FE4F808161E0EE
:100710008F730E94D601FF91EF91DF91CF91BF912E
:10072000AF919F918F917F916F915F914F913F9189
:100730002F910F900FBE0F901F90189580E49CE9A9
:1007400090938900809388008FEF80931A01E3CF04
:10075000109227011092260188EE93E0A0E0B0E00D
:100760008093280190932901A0932A01B0932B0133
:100770008AE091E0909325018093240185EC90E03C
:10078000909331018093300184EC90E09093330199
:100790008093320180EC90E0909335018093340196
:1007A00081EC90E0909337018093360182EC90E0E9
:1007B000909339018093380186EC90E090933B014F
:1007C00080933A0110923D0110923E0110923F0138
:1007D000109240018091E5018C30E8F591E0980F8E
:1007E0009093E5018093EC0190E0FC01EE0FFF1F78
:1007F000E80FF91FEF53FE4F88EB9BE09283818354
:100800001092E7011092E6011092E9011092E801BE
:100810001092EB011092EA0170E060E086EE91E048
:100820000E9422022091E6013091E701811117C058
:100830002115310519F0C9010E94CF071092E70177
:100840001092E6011092EB011092EA011092E90178
:100850001092E80108958FEF8093EC01D1CF1092B0
:10086000EB011092EA0168E171E0C9010C941E09E4
:10087000CF93DF93CDB7DEB728970FB6F894DEBFDE
:100880000FBECDBF789484B5826084BD84B581608D
:1008900084BD85B5826085BD85B5816085BD80914B
:1008A0006E00816080936E001092810080918100C3
:1008B00082608093810080918100816080938100BB
:1008C000809180008160809380008091B10084607D
:1008D0008093B1008091B00081608093B0008091DE
:1008E0007A00846080937A0080917A00826080939D
:1008F0007A0080917A00816080937A0080917A00FA
:10090000806880937A001092C1008091EC018C3055
:1009100008F068C0EDEAF0E02491E9E9F0E08491A4
:10092000882399F090E0880F991FFC01EA57FF4F48
:10093000A591B491FC01E458FF4F859194918FB734
:10094000F894EC91E22BEC938FBF8091EC01282F6F
:1009500030E0F901EE0FFF1FE20FF31FEF53FE4FE0
:100960009081907C996090831092ED011092EE013D
:100970002CE0622F0E942107829FB001112430E0F9
:1009800020E0AB01420F531FFA01EE0FFF1FE40FEF
:10099000F51FEF53FE4F908196FD16C02F5F3F4F1E
:1009A0002C30310571F781110FC01092800082E068
:1009B000809381001092850010928400B19A8091FA
:1009C0006F00826080936F00E091EC018E2F90E0C9
:1009D000FC01EE0FFF1FE80FF91FEF53FE4F808160
:1009E00080648083E0913401F091350182E080835E
:1009F000E0913001F09131011082E0913201F091EB
:100A000033018FEC808310923C01E0913801F0912A
:100A1000390186E08083E0913601F09137018081D1
:100A200080618083E0913601F09137018081886098
:100A30008083E0913601F091370180818068808366
:100A4000E0913601F091370180818F7D8083B8E895
:100A5000EB2EF12C18E5C12E12E0D12E04EB402E26
:100A6000512C612C712CA0E02A2EA0E03A2E84E2B9
:100A700091E00E942701892B09F4E0C01A821982B3
:100A80001C821B821E821D8270E060E0CE010196F6
:100A90000E94220229813A8181112BC02115310542
:100AA00019F0C9010E94CF071A8219821E821D8285
:100AB0001C821B820E94D90097FD23C08F83188659
:100AC0000D811E810F5F1F4FB801CE0101960E945C
:100AD0002202882379F329813A818D819E81BE018A
:100AE000695F7F4F820F931F0E941E091E830D8333
:100AF000E1CF1E821D8268E171E0C9010E941E09DA
:100B0000D9CF8091E6019091E701009709F4A4C044
:100B100069817A816115710509F49CC04091E801F1
:100B20005091E9012D813E814217530708F492C08C
:100B30000E941E098D819E819093EB018093EA01B2
:100B400089819A810E94CF078091E6019091E70107
:100B5000009709F496C00E944B069B01603242E068
:100B60007407C4F52091ED01A701421B510927FD2F
:100B700053959A01220F331F220F331F4901330F60
:100B8000AA08BB082091EE01A601421B510927FDCE
:100B900053959A01220F331F220F331F032E000C8F
:100BA000440B550B281939094A095B09DB01653BE0
:100BB000710514F0A4EBB0E0B7FF02C0B0E0A0E014
:100BC0000E94B106A30192010E948706280D391DDB
:100BD0004A1D5B1DE091EC01EC3080F58091ED0148
:100BE000A701481B510987FD5395CA01880F991F1A
:100BF000880F991F2817390784F08091EE01A6010C
:100C0000481B510987FD5395CA01880F991F880F0A
:100C1000991F281739070CF4C9010297880F991FEB
:100C20004FB7F8942E2F30E0F901EE0FFF1FE20FBF
:100C3000F31FEF53FE4F928381834FBF2114310482
:100C400009F415CF0E943301882309F40CCF0E94C8
:100C5000000009CF0E94CF0789819A819093E70114
:100C60008093E6018B819C819093E9018093E80158
:100C70008D819E819093EB018093EA011A82198203
:100C80005FCF60E070E0CB0168CF8091E60190918A
:100C9000E7010C94CF071F93FC0199278827BC011B
:100CA000E89411911032E9F3193010F01E30C8F3B6
:100CB0001B3251F01D3249F4689406C00E9472063E
:100CC000610F711D811D911D119110531A30B0F3E8
:100CD0003EF490958095709561957F4F8F4F9F4F13
:100CE0001F910895592F482F372F262F660F771FF2
:100CF000881F991F660F771F881F991F620F731F28
:100D0000841F951F660F771F881F991F0895052E52
:100D100097FB1EF400940E949E0657FD07D00E9488
:100D2000F00607FC03D04EF40C949E0650954095B7
:100D3000309521953F4F4F4F5F4F08959095809587
:100D4000709561957F4F8F4F9F4F08950E941207B6
:100D5000A59F900DB49F900DA49F800D911D11240F
:100D60000895B7FF0C94A6060E94A606821B930B5B
:100D700008952F923F924F925F926F927F928F923F
:100D80009F92AF92BF92CF92DF92EF92FF920F931A
:100D90001F93CF93DF93CDB7DEB7CA1BDB0B0FB624
:100DA000F894DEBF0FBECDBF09942A8839884888E1
:100DB0005F846E847D848C849B84AA84B984C88477
:100DC000DF80EE80FD800C811B81AA81B981CE0F6E
:100DD000D11D0FB6F894DEBF0FBECDBFED01089553
:100DE000A1E21A2EAA1BBB1BFD010DC0AA1FBB1F2F
:100DF000EE1FFF1FA217B307E407F50720F0A21BA1
:100E0000B30BE40BF50B661F771F881F991F1A940D
:100E100069F760957095809590959B01AC01BD0137
:100E2000CF010895A29FB001B39FC001A39F700D91
:100E3000811D1124911DB29F700D811D1124911DE2
:100E40000895991B79E004C0991F961708F0961B26
:100E5000881F7A95C9F780950895EE0FFF1F0590BA
:100E6000F491E02D09940F931F93CF93DF93823079
:100E7000910510F482E090E0E091F101F091F2012F
:100E800030E020E0B0E0A0E0309799F42115310582
:100E900009F44AC0281B390B24303105D8F58A8162
:100EA0009B816115710589F1FB0193838283FE01AA
:100EB00011C0408151810281138148175907E0F028
:100EC0004817590799F4109761F012960C931297EE
:100ED00013961C933296CF01DF91CF911F910F9102
:100EE00008950093F1011093F201F4CF211531051B
:100EF00051F04217530738F0A901DB019A01BD01F7
:100F0000DF01F801C1CFEF01F9CF9093F201809397
:100F1000F101CDCFFE01E20FF31F81939193225097
:100F2000310939832883D7CF2091EF013091F00127
:100F3000232B41F420910201309103013093F00101
:100F40002093EF012091000130910101211531051D
:100F500041F42DB73EB74091040150910501241B87
:100F6000350BE091EF01F091F001E217F307A0F4E7
:100F70002E1B3F0B2817390778F0AC014E5F5F4FEF
:100F80002417350748F04E0F5F1F5093F001409330
:100F9000EF01819391939FCFF0E0E0E09CCFCF935E
:100FA000DF930097E9F0FC01329713821282A0913F
:100FB000F101B091F201ED0130E020E01097A1F4D1
:100FC00020813181820F931F2091EF013091F00138
:100FD0002817390709F061C0F093F001E093EF01A1
:100FE000DF91CF910895EA01CE17DF07E8F54A8136
:100FF0005B819E0141155105B1F7E901FB83EA834D
:1010000049915991C40FD51FEC17FD0761F48081F8
:1010100091810296840F951FE901998388838281CB
:1010200093819B838A83F0E0E0E012968D919C91FE
:1010300013970097B9F52D913C911197CD01029628
:10104000820F931F2091EF013091F001281739078B
:1010500039F6309751F51092F2011092F101B093E8
:10106000F001A093EF01BCCFD383C28340815181B3
:10107000840F951FC817D90761F44E5F5F4F8881B1
:101080009981480F591F518340838A819B819383A3
:1010900082832115310509F0B0CFF093F201E0937E
:1010A000F1019ECFFD01DC01C0CF13821282D7CFA8
:1010B000B0E0A0E0EEE5F8E00C94BB068C010097F0
:1010C00051F4CB010E9433078C01C801CDB7DEB7C4
:1010D000E0E10C94D706FC01E60FF71F9C012250BB
:1010E0003109E217F30708F49DC0D901CD91DC91D5
:1010F0001197C617D70798F0C530D10530F3CE0148
:1011000004978617970708F3C61BD70B2297C1933E
:10111000D1936D937C93CF010E94CF07D6CF5B0113
:10112000AC1ABD0A4C018C0E9D1EA091F101B0912C
:10113000F201512C412CF12CE12C109731F58091CA
:10114000EF019091F0018815990509F05CC04616F1
:10115000570608F058C08091000190910101009756
:1011600041F48DB79EB74091040150910501841B55
:10117000950BE817F90708F055C0F093F001E093DC
:10118000EF01F90171836083A0CF8D919C9111973C
:1011900012966C90129713967C901397A815B90528
:1011A00059F56C0142E0C40ED11CCA14DB0420F1D5
:1011B000AC014A195B09DA011296159780F0628238
:1011C000738251834083D9016D937C93E114F104C0
:1011D00071F0D7011396FC93EE93129776CF229677
:1011E0008C0F9D1FF90191838083F301EFCFF09362
:1011F000F201E093F10169CF4816590608F42C0179
:101200007D01D3019ACFCB010E9433077C01009767
:1012100049F0AE01B8010E941509C8010E94CF072C
:10122000870153CF10E000E050CFFB01DC0102C08A
:1012300001900D9241505040D8F70895FB01DC0118
:1012400001900D920020E1F7089510E0CDE5D0E087
:1012500004C0FE010E942D072196CE35D107C9F7A3
:04126000F894FFCF30
:101264000000F30180000000000069018900B6005D
:0A127400B6012701C50019010000B2
:107E0000112484B714BE81FFF0D085E080938100F7
:107E100082E08093C00088E18093C10086E0809377
:107E2000C20080E18093C4008EE0C9D0259A86E02C
:107E300020E33CEF91E0309385002093840096BBD3
:107E4000B09BFECF1D9AA8958150A9F7CC24DD24C4
:107E500088248394B5E0AB2EA1E19A2EF3E0BF2EE7
:107E6000A2D0813461F49FD0082FAFD0023811F036
:107E7000013811F484E001C083E08DD089C08234E0
:107E800011F484E103C0853419F485E0A6D080C0E4
:107E9000853579F488D0E82EFF2485D0082F10E0AE
:107EA000102F00270E291F29000F111F8ED06801E7
:107EB0006FC0863521F484E090D080E0DECF843638
:107EC00009F040C070D06FD0082F6DD080E0C81688
:107ED00080E7D80618F4F601B7BEE895C0E0D1E017
:107EE00062D089930C17E1F7F0E0CF16F0E7DF06D8
:107EF00018F0F601B7BEE89568D007B600FCFDCFD4
:107F0000A601A0E0B1E02C9130E011968C91119780
:107F100090E0982F8827822B932B1296FA010C0160
:107F200087BEE89511244E5F5F4FF1E0A038BF0790
:107F300051F7F601A7BEE89507B600FCFDCF97BE46
:107F4000E89526C08437B1F42ED02DD0F82E2BD052
:107F50003CD0F601EF2C8F010F5F1F4F84911BD097
:107F6000EA94F801C1F70894C11CD11CFA94CF0C13
:107F7000D11C0EC0853739F428D08EE10CD085E9AC
:107F80000AD08FE07ACF813511F488E018D01DD067
:107F900080E101D065CF982F8091C00085FFFCCF94
:107FA0009093C60008958091C00087FFFCCF809118
:107FB000C00084FD01C0A8958091C6000895E0E648
:107FC000F0E098E1908380830895EDDF803219F02E
:107FD00088E0F5DFFFCF84E1DECF1F93182FE3DFCA
:107FE0001150E9F7F2DF1F91089580E0E8DFEE27F6
:047FF000FF270994CA
:027FFE00040479
:0400000300007E007B
:00000001FF
