:100000000C945E000C9486000C9486000C94860080
:100010000C9486000C9486000C9486000C94860048
:100020000C9486000C9486000C9486000C94C303F8
:100030000C9486000C9486000C9486000C94860028
:100040000C9479030C9486000C9447030C942103C0
:100050000C9486000C9486000C9486000C94860008
:100060000C9486000C948600000000080002010039
:100070000003040700000000000000000000000072
:10008000250028002B0000000000240027002A0083
:10009000040404040404040402020202020203032E
:1000A0000303030301020408102040800102040836
:1000B00010200102040810207F04180711241FBE1D
:1000C000CFEFD8E0DEBFCDBF11E0A0E0B1E0E4EAC1
:1000D000F3E102C005900D92A432B107D9F721E0F7
:1000E000A4E2B1E001C01D92AF3FB207E1F710E01A
:1000F000CDE5D0E004C02197FE010E94C407CC35B5
:10010000D107C9F70E940F050C94C5090C94000093
:10011000CF92DF92EF92FF92DC01A03282E0B8072B
:10012000D4F5A53BB10514F0A4EBB0E04091F90182
:1001300028E830E0241B310947FD3395220F331F97
:10014000220F331F6901330FEE08FF084091FA01B7
:1001500028E532E0241B310947FD3395220F331F78
:10016000220F331F032E000C440B550B2C193D0995
:100170004E095F09B7FF02C0B0E0A0E00E94480747
:1001800024EB30E040E050E00E941E07C20ED31E78
:10019000E41EF51ED601E091F801EC3080F52091C7
:1001A000F90188E890E0821B910927FD9395880F5B
:1001B000991F880F991FA817B90784F02091FA0199
:1001C00088E592E0821B910927FD9395880F991F7E
:1001D000880F991FA817B9070CF4CD010297880F53
:1001E000991F4FB7F8942E2F30E0F901EE0FFF1F43
:1001F000E20FF31FE353FE4F928381834FBFFF90C3
:10020000EF90DF90CF9008950895AF92BF92CF9274
:10021000DF92EF92FF920F931F93CF93DF936C01C6
:100220007B018B01040F151FEB015E01AE18BF08A7
:10023000C017D10759F06991D601ED91FC91019059
:10024000F081E02DC6010995892B79F7C501DF9171
:10025000CF911F910F91FF90EF90DF90CF90BF90C3
:10026000AF900895FC01538D448D252F30E0842FED
:1002700090E0821B930B541710F0CF9608950197CE
:100280000895FC01918D828D981761F0A28DAE0FBB
:10029000BF2FB11D5D968C91928D9F5F9F73928F42
:1002A00090E008958FEF9FEF08952FB7F894809115
:1002B0002C0190912D01A0912E01B0912F012FBF03
:1002C0008093380190933901A0933A01B0933B0198
:1002D00080E391E00E94410197FF26C02FB7F89478
:1002E00080912C0190912D01A0912E01B0912F01B0
:1002F0002FBF409138015091390160913A017091BE
:100300003B01841B950BA60BB70B40913401509118
:100310003501609136017091370184179507A60762
:10032000B707B0F28FEF9FEF0895FC01918D828D9A
:10033000981731F0828DE80FF11D858D90E00895BA
:100340008FEF9FEF0895FC01918D228D892F90E012
:10035000805C9F4F821B91098F739927089580E3DA
:1003600091E00E94A30121E0892B09F420E0822F73
:10037000089580E090E0892B29F00E94AF0181115F
:100380000C9400000895FC01A48DA80FB92FB11D95
:10039000A35ABF4F2C91848D90E001968F739927BB
:1003A000848FA689B7892C93A089B1898C91837099
:1003B00080648C93938D848D981306C00288F38992
:1003C000E02D80818F7D80830895EF92FF920F93BF
:1003D0001F93CF93DF93EC0181E0888F9B8D8C8DF1
:1003E00098131AC0E889F989808185FF15C09FB7E5
:1003F000F894EE89FF896083E889F98980818370A8
:10040000806480839FBF81E090E0DF91CF911F9156
:100410000F91FF90EF900895F62E0B8D10E00F5F77
:100420001F4F0F731127E02E8C8D8E110CC00FB64D
:1004300007FCFACFE889F989808185FFF5CFCE01E5
:100440000E94C301F1CFEB8DEC0FFD2FF11DE35A9C
:10045000FF4FF0829FB7F8940B8FEA89FB89808168
:100460008062CFCFCF93DF93EC01888D8823B9F0E2
:10047000AA89BB89E889F9898C9185FD03C08081AF
:1004800086FD0DC00FB607FCF7CF8C9185FFF2CF2C
:10049000808185FFEDCFCE010E94C301E9CFDF91BE
:1004A000CF91089590E0FC01E859FF4F2491FC01A1
:1004B000EC55FF4F3491FC01E057FF4FE491EE23E0
:1004C000C9F0222339F0233001F1A8F4213019F1C9
:1004D000223029F1F0E0EE0FFF1FE458FF4FA59105
:1004E000B4918FB7F894EC91611126C030953E23FA
:1004F0003C938FBF08952730A9F02830C9F02430ED
:1005000049F7809180008F7D03C0809180008F77B4
:1005100080938000DFCF84B58F7784BDDBCF84B537
:100520008F7DFBCF8091B0008F778093B000D2CFCA
:100530008091B0008F7DF9CF3E2BDACF3FB7F89492
:100540008091260190912701A0912801B091290165
:1005500026B5A89B05C02F3F19F00196A11DB11D1E
:100560003FBFBA2FA92F982F8827BC01CD01620F5A
:10057000711D811D911D42E0660F771F881F991F15
:100580004A95D1F708958F929F92AF92BF92CF92E2
:10059000DF92EF92FF920E949E024B015C0188EE77
:1005A000C82E83E0D82EE12CF12C0E949E026819FF
:1005B00079098A099B09683E734081059105A8F372
:1005C00021E0C21AD108E108F10888EE880E83E024
:1005D000981EA11CB11CC114D104E104F10429F737
:1005E000FF90EF90DF90CF90BF90AF909F908F9053
:1005F00008950F931F93CF93DF93EC018881998126
:10060000009759F02A813B812617370730F081E0A7
:10061000DF91CF911F910F9108958B016F5F7F4FF5
:100620000E94EF08009759F0998388831B830A83FF
:100630002C813D81232B59F7FC011082E8CF80E00B
:10064000E7CF1F920F920FB60F9211242F933F9373
:100650004F935F936F937F938F939F93AF93BF93CA
:10066000EF93FF9380E391E00E94C301FF91EF912C
:10067000BF91AF919F918F917F916F915F914F91BA
:100680003F912F910F900FBE0F901F9018951F92C2
:100690000F920FB60F9211242F938F939F93EF9386
:1006A000FF93E0914001F09141018081E09146018A
:1006B000F091470182FD1BC09081809149018F5FBD
:1006C0008F7320914A01821741F0E0914901F0E0D7
:1006D000E05DFE4F958F80934901FF91EF919F91CF
:1006E0008F912F910F900FBE0F901F9018958081C2
:1006F000F4CF1F920F920FB60F9211242F933F93B6
:100700008F939F93AF93BF9380912C0190912D0174
:10071000A0912E01B0912F013091250123E0230FEC
:100720002D3758F50196A11DB11D20932501809309
:100730002C0190932D01A0932E01B0932F01809155
:10074000260190912701A0912801B09129010196DD
:10075000A11DB11D8093260190932701A09328012C
:10076000B0932901BF91AF919F918F913F912F91AC
:100770000F900FBE0F901F90189526E8230F02963A
:10078000A11DB11DD2CF1F920F920FB60F9211244F
:100790002F933F934F935F936F937F938F939F9389
:1007A000AF93BF93CF93DF93EF93FF938091240197
:1007B000C091F101D0E087FF24C010928500109213
:1007C0008400809124018F5F809324018091240113
:1007D000082E000C990B8C179D0724F4809124019E
:1007E0008C30C4F18091840090918500049680340F
:1007F0009C4908F47AC08091840090918500049609
:1008000076C080912401082E000C990B8C179D074F
:10081000C4F6E09124018E2FEE0F990BFC01EE0F30
:10082000FF1FE80FF91FE353FE4F808186FFC9CFFA
:10083000E09124018E2FEE0F990BFC01EE0FFF1FAC
:10084000E80FF91FE353FE4F808160E08F730E9431
:100850005202B7CF2091840030918500E0912401AD
:100860008E2FEE0F990BFC01EE0FFF1FE80FF91F03
:10087000E353FE4F81819281820F931F90938900F1
:1008800080938800E09124018E2FEE0F990BFC01DC
:10089000EE0FFF1FE80FF91FE353FE4F808186FF25
:1008A00011C0E09124018E2FEE0F990BFC01EE0F89
:1008B000FF1FE80FF91FE353FE4F808161E08F7344
:1008C0000E945202FF91EF91DF91CF91BF91AF91C2
:1008D0009F918F917F916F915F914F913F912F9158
:1008E0000F900FBE0F901F90189580E49CE9909395
:1008F0008900809388008FEF80932401E3CF1092CA
:1009000033011092320188EE93E0A0E0B0E08093D2
:10091000340190933501A0933601B09337018AE0FA
:1009200091E0909331018093300185EC90E09093B9
:100930003D0180933C0184EC90E090933F018093D3
:100940003E0180EC90E0909341018093400181EC66
:1009500090E0909343018093420182EC90E0909369
:1009600045018093440186EC90E090934701809389
:1009700046011092490110924A0110924B011092C7
:100980004C018091F1018C30E8F591E0980F909343
:10099000F1018093F80190E0FC01EE0FFF1FE80FDA
:1009A000F91FE353FE4F88EB9BE092838183109203
:1009B000F3011092F2011092F5011092F4011092DD
:1009C000F7011092F60170E060E082EF91E00E9482
:1009D000F9022091F2013091F301811117C0211524
:1009E000310519F0C9010E9466081092F3011092B6
:1009F000F2011092F7011092F6011092F501109297
:100A0000F40108958FEF8093F801D1CF1092F70190
:100A10001092F6016CE171E0C9010C94BE09CF930C
:100A2000DF93CDB7DEB728970FB6F894DEBF0FBEC1
:100A3000CDBF789484B5826084BD84B5816084BD67
:100A400085B5826085BD85B5816085BD80916E006C
:100A5000816080936E00109281008091810082609D
:100A600080938100809181008160809381008091DA
:100A700080008160809380008091B10084608093C9
:100A8000B1008091B00081608093B00080917A00C5
:100A9000846080937A0080917A00826080937A00EB
:100AA00080917A00816080937A0080917A008068DA
:100AB00080937A001092C1008091F8018C3008F088
:100AC00068C0EDEAF0E02491E9E9F0E08491882340
:100AD00099F090E0880F991FFC01EA57FF4FA5910C
:100AE000B491FC01E458FF4F859194918FB7F8942D
:100AF000EC91E22BEC938FBF8091F801282F30E02E
:100B0000F901EE0FFF1FE20FF31FE353FE4F908139
:100B1000907C996090831092F9011092FA012CE078
:100B2000622F0E94B807829FB001112430E020E0BC
:100B3000AB01420F531FFA01EE0FFF1FE40FF51F29
:100B4000E353FE4F908196FD16C02F5F3F4F2C3030
:100B5000310571F781110FC01092800082E08093FF
:100B600081001092850010928400B19A80916F00EC
:100B7000826080936F00E091F8018E2F90E0FC017D
:100B8000EE0FFF1FE80FF91FE353FE4F80818064D3
:100B90008083E0914001F091410182E08083E09107
:100BA0003C01F0913D011082E0913E01F0913F0146
:100BB0008FEC808310924801E0914401F09145014F
:100BC00086E08083E0914201F09143018081806161
:100BD0008083E0914201F0914301808188608083AD
:100BE000E0914201F0914301808180688083E0912F
:100BF0004201F091430180818F7D808378E5A72EAB
:100C000072E0B72EE8E88E2E912C00E010E080E331
:100C100091E00E94A301892B09F4D7C01A8219829E
:100C20001C821B821E821D8270E060E0CE01019654
:100C30000E94F90229813A8181112CC021153105C8
:100C400019F0C9010E9466081A8219821E821D824B
:100C50001C821B820E94550197FD24C08F83188639
:100C6000ED80FE808FEFE81AF80AB701CE010196F9
:100C70000E94F902882371F329813A818D819E8136
:100C8000BE01695F7F4F820F931F0E94BE09FE82E3
:100C9000ED82E0CF1E821D826CE171E0C9010E94ED
:100CA000BE09D8CF8091F2019091F301009709F429
:100CB0009AC069817A816115710509F492C04091E9
:100CC000F4015091F5012D813E814217530708F43C
:100CD00088C00E94BE098D819E819093F701809308
:100CE000F60189819A810E9466088091FA01650166
:100CF000C81AD10887FDD394CC0CDD1CCC0CDD1CAC
:100D00000D2C000CEE08FF088091F9012401481A0F
:100D1000510887FD5394440C551C440C551C052C5C
:100D2000000C660877088091F8018F3F09F470C0C5
:100D300090E0FC01EE0FFF1FE80FF91FE353FE4F99
:100D40008181928133E0880F991F3A95E1F7B0E0F5
:100D5000A0E044E0B595A795979587954A95D1F77A
:100D600002969C012F5F3F4F032E000C440B550B46
:100D70002419350946095709A4EBB0E00E943D0744
:100D8000A701960124193509460957090E941E0733
:100D9000290130932B0120932A018091F601909133
:100DA000F701892B91F0E090F201F090F30168E1F6
:100DB00071E0C7010E94B509892B69F50E94C30241
:100DC000C2018A5591090E9488000115110509F494
:100DD0001ECF0E94AF01882309F419CF0E940000A2
:100DE00016CF0E94660889819A819093F3018093BF
:100DF000F2018B819C819093F5018093F4018D81A8
:100E00009E819093F7018093F6011A82198269CF2F
:100E100090E080E0A6CF6DE171E0C7010E94B509C6
:100E2000892B99F60E94C302C201865A9F4FCBCFED
:100E30008091F2019091F3010C946608052E97FBC6
:100E40001EF400940E94350757FD07D00E948707C3
:100E500007FC03D04EF40C9435075095409530951F
:100E600021953F4F4F4F5F4F089590958095709516
:100E700061957F4F8F4F9F4F08950E94A907A59FAF
:100E8000900DB49F900DA49F800D911D1124089585
:100E9000B7FF0C943D070E943D07821B930B0895FA
:100EA0002F923F924F925F926F927F928F929F927A
:100EB000AF92BF92CF92DF92EF92FF920F931F9368
:100EC000CF93DF93CDB7DEB7CA1BDB0B0FB6F89419
:100ED000DEBF0FBECDBF09942A88398848885F8459
:100EE0006E847D848C849B84AA84B984C884DF80CA
:100EF000EE80FD800C811B81AA81B981CE0FD11DAE
:100F00000FB6F894DEBF0FBECDBFED010895A1E28C
:100F10001A2EAA1BBB1BFD010DC0AA1FBB1FEE1F73
:100F2000FF1FA217B307E407F50720F0A21BB30BBE
:100F3000E40BF50B661F771F881F991F1A9469F73A
:100F400060957095809590959B01AC01BD01CF0196
:100F50000895A29FB001B39FC001A39F700D811D92
:100F60001124911DB29F700D811D1124911D0895B2
:100F7000991B79E004C0991F961708F0961B881FEB
:100F80007A95C9F780950895EE0FFF1F0590F491AB
:100F9000E02D09940F931F93CF93DF938230910537
:100FA00010F482E090E0E091FD01F091FE0130E06C
:100FB00020E0B0E0A0E0309799F42115310509F464
:100FC0004AC0281B390B24303105D8F58A819B8112
:100FD0006115710589F1FB0193838283FE0111C0C4
:100FE000408151810281138148175907E0F0481769
:100FF000590799F4109761F012960C931297139673
:101000001C933296CF01DF91CF911F910F910895DC
:101010000093FD011093FE01F4CF2115310551F02D
:101020004217530738F0A901DB019A01BD01DF0126
:10103000F801C1CFEF01F9CF9093FE018093FD013C
:10104000CDCFFE01E20FF31F81939193225031091E
:1010500039832883D7CF2091FB013091FC01232BCA
:1010600041F420910201309103013093FC0120935F
:10107000FB0120910001309101012115310541F45E
:101080002DB73EB74091040150910501241B350B4B
:10109000E091FB01F091FC01E217F307A0F42E1B95
:1010A0003F0B2817390778F0AC014E5F5F4F2417CC
:1010B000350748F04E0F5F1F5093FC014093FB0132
:1010C000819391939FCFF0E0E0E09CCFCF93DF93AB
:1010D0000097E9F0FC01329713821282A091FD0182
:1010E000B091FE01ED0130E020E01097A1F42081E5
:1010F0003181820F931F2091FB013091FC01281751
:10110000390709F061C0F093FC01E093FB01DF9126
:10111000CF910895EA01CE17DF07E8F54A815B8198
:101120009E0141155105B1F7E901FB83EA8349911D
:101130005991C40FD51FEC17FD0761F4808191818F
:101140000296840F951FE901998388838281938198
:101150009B838A83F0E0E0E012968D919C91139737
:101160000097B9F52D913C911197CD010296820F10
:10117000931F2091FB013091FC012817390739F6A4
:10118000309751F51092FE011092FD01B093FC01D1
:10119000A093FB01BCCFD383C28340815181840FD4
:1011A000951FC817D90761F44E5F5F4F88819981F9
:1011B000480F591F518340838A819B819383828387
:1011C0002115310509F0B0CFF093FE01E093FD0148
:1011D0009ECFFD01DC01C0CF13821282D7CFB0E0D9
:1011E000A0E0E5EFF8E00C9452078C01009751F471
:1011F000CB010E94CA078C01C801CDB7DEB7E0E180
:101200000C946E07FC01E60FF71F9C012250310978
:10121000E217F30708F49DC0D901CD91DC91119735
:10122000C617D70798F0C530D10530F3CE01049723
:101230008617970708F3C61BD70B2297C193D19344
:101240006D937C93CF010E946608D6CF5B01AC1AE8
:10125000BD0A4C018C0E9D1EA091FD01B091FE01B6
:10126000512C412CF12CE12C109731F58091FB0190
:101270009091FC018815990509F05CC04616570647
:1012800008F058C08091000190910101009741F44D
:101290008DB79EB74091040150910501841B950BB9
:1012A000E817F90708F055C0F093FC01E093FB0143
:1012B000F90171836083A0CF8D919C911197129653
:1012C0006C90129713967C901397A815B90559F551
:1012D0006C0142E0C40ED11CCA14DB0420F1AC0145
:1012E0004A195B09DA011296159780F062827382BF
:1012F00051834083D9016D937C93E114F10471F023
:10130000D7011396FC93EE93129776CF22968C0F0B
:101310009D1FF90191838083F301EFCFF093FE01CC
:10132000E093FD0169CF4816590608F42C017D01B0
:10133000D3019ACFCB010E94CA077C01009749F0E4
:10134000AE01B8010E94AC09C8010E94660887017D
:1013500053CF10E000E050CFFB01DC0102C0019050
:101360000D9241505040D8F70895FB01DC018D915A
:10137000019080190110D9F3990B0895FB01DC014C
:1013800001900D920020E1F7089510E0CDE5D0E046
:1013900004C0FE010E94C4072196CE35D107C9F7CB
:0413A000F894FFCFEF
:1013A4000000FF01800000000000E501050132019A
:1013B4003202A301410195016C656674007269678C
:0413C4006874000049
:107E0000112484B714BE81FFF0D085E080938100F7
:107E100082E08093C00088E18093C10086E0809377
:107E2000C20080E18093C4008EE0C9D0259A86E02C
:107E300020E33CEF91E0309385002093840096BBD3
:107E4000B09BFECF1D9AA8958150A9F7CC24DD24C4
:107E500088248394B5E0AB2EA1E19A2EF3E0BF2EE7
:107E6000A2D0813461F49FD0082FAFD0023811F036
:107E7000013811F484E001C083E08DD089C08234E0
:107E800011F484E103C0853419F485E0A6D080C0E4
:107E9000853579F488D0E82EFF2485D0082F10E0AE
:107EA000102F00270E291F29000F111F8ED06801E7
:107EB0006FC0863521F484E090D080E0DECF843638
:107EC00009F040C070D06FD0082F6DD080E0C81688
:107ED00080E7D80618F4F601B7BEE895C0E0D1E017
:107EE00062D089930C17E1F7F0E0CF16F0E7DF06D8
:107EF00018F0F601B7BEE89568D007B600FCFDCFD4
:107F0000A601A0E0B1E02C9130E011968C91119780
:107F100090E0982F8827822B932B1296FA010C0160
:107F200087BEE89511244E5F5F4FF1E0A038BF0790
:107F300051F7F601A7BEE89507B600FCFDCF97BE46
:107F4000E89526C08437B1F42ED02DD0F82E2BD052
:107F50003CD0F601EF2C8F010F5F1F4F84911BD097
:107F6000EA94F801C1F70894C11CD11CFA94CF0C13
:107F7000D11C0EC0853739F428D08EE10CD085E9AC
:107F80000AD08FE07ACF813511F488E018D01DD067
:107F900080E101D065CF982F8091C00085FFFCCF94
:107FA0009093C60008958091C00087FFFCCF809118
:107FB000C00084FD01C0A8958091C6000895E0E648
:107FC000F0E098E1908380830895EDDF803219F02E
:107FD00088E0F5DFFFCF84E1DECF1F93182FE3DFCA
:107FE0001150E9F7F2DF1F91089580E0E8DFEE27F6
:047FF000FF270994CA
:027FFE00040479
:0400000300007E007B
:00000001FF
